:1000000002308A004B2A000083160613831206135F
:100010008316861383128613831605108312051028
:10002000831606108312061083168610831286101C
:100030008316061183120611831686118312861108
:1000400083160612831206128316861283128612F4
:10005000562A1208003A03193D28013A031942288A
:10006000033A03194728013A03194C28073A0319A0
:100070005128013A031956285B28831686118312EA
:1000800086155C2883168611831286115C288316D8
:100090000612831206165C288316061283120612B5
:1000A0005C2883168612831286165C2883168612B5
:1000B000831286125C285C281208043C0318652809
:1000C000920101308D0069286928920A00308D0064
:1000D000692808001308003A03197E28013A031919
:1000E0008328033A03198828013A03198D28073A0F
:1000F00003199228013A031997289C28831606139E
:10010000831206179D2883160613831206139D2853
:1001100083168613831286179D28831686138312EF
:1001200086139D2883160510831205149D288316B7
:100130000510831205109D289D281308043C031800
:10014000A628930101308D00AA28AA28930A00301E
:100150008D00AA2808001608003A0319BF28013AA2
:100160000319C428033A0319C928013A0319CE28F0
:10017000073A0319D328013A0319D828DD28831632
:10018000051083120514DE2883160510831205104E
:10019000DE288316861383128617DE2883168613BD
:1001A00083128613DE288316061383120617DE28B1
:1001B0008316061383120613DE28DE281608043C75
:1001C0000318E728960101308D00EB28EB28960AEA
:1001D00000308D00EB2808001508003A03190029AB
:1001E000013A03190529033A03190A29013A0319A7
:1001F0000F29073A03191429013A031919291E294D
:1002000083168612831286161F298316861283127E
:1002100086121F2983160612831206161F298316BB
:100220000612831206121F29831686118312861561
:100230001F2983168611831286111F291F2915086D
:10024000043C03182829950101308D002C292C2904
:10025000950A00308D002C2908001108003A031976
:100260004129013A03194629033A03194B29013A56
:1002700003195029073A03195529013A03195A2934
:100280005F29831606108312061460298316061050
:100290008312061060298316861083128614602943
:1002A0008316861083128610602983160611831226
:1002B000061560298316061183120611602960292C
:1002C0001108043C03186929910101308D006D2942
:1002D0006D29910A00308D006D2908001408003A3C
:1002E00003198229013A03198729033A03198C2932
:1002F000013A03199129073A03199629013A03197A
:100300009B29A0298316061183120615A12983169D
:10031000061183120611A1298316861083128614F2
:10032000A1298316861083128610A1298316061030
:1003300083120614A1298316061083120610A12920
:10034000A1291408043C0318AA29940101308D0046
:10035000AE29AE29940A00308D00AE29080010089D
:10036000003A0319E129013A0319E629033A03196E
:10037000EB29013A0319F029073A0319F529013A43
:100380000319FA29033A0319FF29013A0319042A28
:100390000F3A0319092A013A03190E2A033A0319DD
:1003A000132A013A0319182A073A03191D2A013A98
:1003B0000319222A033A0319272A013A03192C2A7E
:1003C000312A29200D0BE529900A322A6A200D0BCB
:1003D000EA29900A322AAB200D0BEF29900A322A23
:1003E000EC200D0BF429900A322A29200D0BF92953
:1003F000900A322A6A200D0BFE29900A322A2D21FA
:100400000D0B032A900A322A6E210D0B082A900A3E
:10041000322AAB200D0B0D2A900A322AEC200D0B4C
:10042000122A900A322A2D210D0B172A900A322AFD
:100430006A200D0B1C2A900A322AAB200D0B212AB0
:10044000900A322A6E210D0B262A900A322A2D217B
:100450000D0B2B2A900A322A6E210D0B302A900A9E
:10046000322A322A10080F3C031C9001572A1730F9
:100470008400000803194A2A01308D008C018C0B7E
:100480003F2A8D0B3E2A4A308C008C0B452A482A85
:10049000800B3C2A5A2A84011F3083059001910168
:1004A000920193019401950196010428AF2901302E
:0804B0009700372A562A630069
:02400E00F23F7F
:00000001FF
;PIC16F84A
;CRC=F3F3  CREATED="18-џэт-20 08:19"
